:1000000000308A00A32A00000A108A100A11820711
:1000100049346E346934633469346F3400343630B3
:10002000840083130008031923280130F800F70126
:10003000F70B1828F80B17284A30F700F70B1E2883
:100040002128800B15280034B501B5013508073C7F
:10005000031C5B28B508031D3E2883160610831277
:100060000610831605138312051383168513831256
:10007000851383160512831205124E288316061067
:10008000831206148316051383120517831685132E
:10009000831285178316051283120516831606121E
:1000A0008312061283160612831206160130B6005A
:1000B0000F20B50A2628F32A37080739F700370C2E
:1000C000F800F80CF80C1F30F805780838078400A1
:1000D0008313391883170008F800F70A7028F80C02
:1000E000F70B6F280034B908031D8328B808031DD7
:1000F0007E288316061083120610822883160610A7
:1001000083120614AF28390B9228B808031D8D28D6
:100110008316051383120513912883160513831282
:100120000517AF283908023C031DA328B808031D92
:100130009E288316851383128513A22883168513A0
:1001400083128517AF28B808031DAB288316051244
:1001500083120512AF288316051283120516003488
:100160000730AE00AE1BE629831606128312061274
:100170003230B6000F20AF012F08033C031CDD29ED
:100180002E08073C031DF728B308031DCF2883164C
:100190000610831206108316051383120513330B02
:1001A000D52883160610831206143308023C031D5B
:1001B000DD288316051383120517B208031DE828EE
:1001C0008316851383128513831605128312051275
:1001D000320BEE2883168513831285173208023CF2
:1001E000031DF6288316051283120516DB2920301D
:1001F0002F07840083138008031D0E292E08063C58
:10020000B700B9012430B8005C2000307818013004
:10021000B700B8002F08B9007320DB2920302F0762
:1002200084008313000B24292E08063CB700B90173
:100230002530B8005C20003078180130B700B800D5
:100240002F08B9007320DB2920302F078400831387
:100250000008023C031D3C292E08063CB700B901EA
:100260002630B8005C20003078180130B700B800A4
:100270002F08B9007320DB2920302F078400831357
:100280000008033C031D54292E08063CB700B901A1
:100290002730B8005C20003078180130B700B80073
:1002A0002F08B9007320DB2920302F078400831327
:1002B0000008043C031D6C292E08063CB700B90158
:1002C0002830B8005C20003078180130B700B80042
:1002D0002F08B9007320DB2920302F0784008313F7
:1002E0000008053C031D84292E08063CB700B9010F
:1002F0002930B8005C20003078180130B700B80011
:100300002F08B9007320DB2920302F0784008313C6
:100310000008063C031D9C292E08063CB700B901C5
:100320002A30B8005C20003078180130B700B800DF
:100330002F08B9007320DB2920302F078400831396
:100340000008073C031DB4292E08063CB700B9017C
:100350002B30B8005C20003078180130B700B800AE
:100360002F08B9007320DB2920302F078400831366
:100370000008083C031DCC292E08063CB700B90133
:100380002C30B8005C20003078180130B700B8007D
:100390002F08B9007320DB292E08063CB700B901ED
:1003A0002D30B8005C20003078180130B700B8005C
:1003B0002F08B9007320AF0ABC28831606128312D7
:1003C00006163230B6000F20AE03B2280034F70113
:1003D000F801380803103918F707F70CF80CB918AA
:1003E000F707F70CF80C3919F707F70CF80CB919DF
:1003F000F707F70CF80C391AF707F70CF80CB91ACD
:10040000F707F70CF80C391BF707F70CF80CB91BBA
:10041000F707F70CF80C0034B508031D2A2A341C22
:100420001F2AA11B172A2108093C031C1A2A013084
:10043000A1071D2AA1010130A007B020292AB4106C
:1004400083168613831286133414831606138312BD
:100450000617442AB41C3A2AA31B322A2308093C53
:10046000031C352A0130A307382AA3010130A20753
:10047000B020442A34108316061383120613B414D2
:10048000831686138312861732083307013C031C38
:100490006B2A0A30B8002008B900E7212108780744
:1004A000300203195D2A0A30B8002208B900E7219A
:1004B000230878073002031D6A2AB508031D632A42
:1004C0000130B307652A0130B207A001A101A201E2
:1004D000A301B0208C2A0A30B8002008B900E72117
:1004E00021087807310203197F2A0A30B800220850
:1004F000B900E721230878073102031D8C2AB508CB
:10050000031D852A0130B307872A0130B207A001F5
:10051000A101A201A301B0200034B508031D992A4E
:10052000A11B952A0130A102982AA1010130A00245
:10053000A12AA31B9E2A0130A302A12AA3010130F4
:10054000A202B0200034840183131F308305831678
:100550008E1519309900A6309800903083129800BB
:1005600007309F00A001A101A201A3010130A40056
:100570004F30A5001230A6000630A7004C30A8006E
:100580002430A9006030AA000F30AB00AC01043069
:10059000AD00AE01AF010C30B0000F30B100B201C0
:1005A000B3013410B410831685013F3083128500E7
:1005B00083168601FF3083128600B50135080420BA
:1005C000B50AF70077080C1EE32A990006303502B9
:1005D000031DDE2A83160613831206138316861361
:1005E000831286132428B0200630B500FA30B600F6
:1005F0000F20B50BF62A8316851483128518282B35
:100600000230B500FA30B6000F20B50B022B83166E
:1006100085148312851C172B73300C1E0D2B99002B
:100620006C300C1E112B9900B5010C22282B723056
:100630000C1E182B99006C300C1E1C2B9900B50158
:100640008D220230B500FA30B6000F20B50B232BF7
:100650008316051583120519472B0230B500FA30B1
:10066000B6000F20B50B2F2B831605158312051D21
:100670003D2B0130B5000C22472B0130B5008D22F7
:100680000230B500FA30B6000F20B50B422BFB2A22
:02069000630005
:02400E00503F21
:00000001FF
;PIC16F628A
