:1000000000308A003B2A0000363084008313000849
:10001000031918280130F800F701F70B0D28F80B29
:100020000C284A30F700F70B13281628800B0A28F3
:100030000034B501B5013508073C031C352806120C
:100040003230B6000420B508031D2B280610861098
:10005000061186112F280614861406158615061615
:100060003230B6000420B50A1B286E2A370807393B
:10007000F700370CF800F80CF80C1F30F80578087A
:10008000380784008313391883170008F800F70A2B
:100090004A28F80CF70B49280034B908031D5728E3
:1000A000B808031D55280610562806147128390B68
:1000B0006028B808031D5E2886105F288614712802
:1000C0003908023C031D6B28B808031D6928061176
:1000D0006A2806157128B808031D70288611712832
:1000E0008615003405100730AE00AE1B8A290612B3
:1000F0003230B6000420AF012F08033C031C8329D3
:100100002E08073C031D9D28B308031D89280610EF
:100110008610330B8C2806143308023C031986140E
:10012000B208031D952806118611320B9828061572
:100130003208023C03198615812920302F078400DC
:1001400083138008031DB4282E08063CB700B901AC
:100150002430B8003620003078180130B700B800DD
:100160002F08B9004D20812920302F0784008313E8
:10017000000BCA282E08063CB700B9012530B8008C
:100180003620003078180130B700B8002F08B900C9
:100190004D20812920302F07840083130008023C62
:1001A000031DE2282E08063CB700B9012630B8002E
:1001B0003620003078180130B700B8002F08B90099
:1001C0004D20812920302F07840083130008033C31
:1001D000031DFA282E08063CB700B9012730B800E5
:1001E0003620003078180130B700B8002F08B90069
:1001F0004D20812920302F07840083130008043C00
:10020000031D12292E08063CB700B9012830B8009A
:100210003620003078180130B700B8002F08B90038
:100220004D20812920302F07840083130008053CCE
:10023000031D2A292E08063CB700B9012930B80051
:100240003620003078180130B700B8002F08B90008
:100250004D20812920302F07840083130008063C9D
:10026000031D42292E08063CB700B9012A30B80008
:100270003620003078180130B700B8002F08B900D8
:100280004D20812920302F07840083130008073C6C
:10029000031D5A292E08063CB700B9012B30B800BF
:1002A0003620003078180130B700B8002F08B900A8
:1002B0004D20812920302F07840083130008083C3B
:1002C000031D72292E08063CB700B9012C30B80076
:1002D0003620003078180130B700B8002F08B90078
:1002E0004D2081292E08063CB700B9012D30B800F9
:1002F0003620003078180130B700B8002F08B90058
:100300004D20AF0A7C2806163230B60004200514B2
:10031000AE0375280034F701F801380803103918C6
:10032000F707F70CF80CB918F707F70CF80C3919A0
:10033000F707F70CF80CB919F707F70CF80C391A8E
:10034000F707F70CF80CB91AF707F70CF80C391B7C
:10035000F707F70CF80CB91BF707F70CF80C00348B
:10036000B508031DC829341CC329A11BBB292108BA
:10037000093C031CBE290130A107C129A10101309C
:10038000A0077220C729B410861334140617DC297D
:10039000B41CD829A31BD0292308093C031CD3294A
:1003A0000130A307D629A3010130A2077220DC295E
:1003B00034100613B414861732083307013C031CAB
:1003C000032A0A30B8002008B9008B2121087807D9
:1003D00030020319F5290A30B8002208B9008B2130
:1003E000230878073002031D022AB508031DFB29E4
:1003F0000130B307FD290130B207A001A101A2011C
:10040000A3017220242A0A30B8002008B9008B21E9
:100410002108780731020319172A0A30B800220888
:10042000B9008B21230878073102031D242AB5085F
:10043000031D1D2A0130B3071F2A0130B207A00196
:10044000A101A201A30172200034B508031D312AC5
:10045000A11B2D2A0130A102302AA1010130A002E6
:10046000392AA31B362A0130A302392AA3010130FD
:10047000A20272200034840183131F3083050730E9
:100480009F00A001A101A201A3010130A4004F30EF
:10049000A5001230A6000630A7004C30A80024307A
:1004A000A9006030AA000F30AB00AC010430AD00F1
:1004B000AE01AF010C30B0000F30B100B201B3019A
:1004C0003410B4103E306500003066003F308500C7
:1004D000FF308600051006138613192805147220B4
:1004E0000630B500FA30B6000420B50B722A851824
:1004F0008E2A0230B500FA30B6000420B50B7B2AF4
:10050000851C852AB501B0218E2AB501252202302D
:10051000B500FA30B6000420B50B892A0519A72AC0
:100520000230B500FA30B6000420B50B922A051D42
:100530009D2A0130B500B021A72A0130B50025223F
:100540000230B500FA30B6000420B50BA22A772A93
:02055000630046
:02400E00613F10
:00000001FF
;PIC16F628A
