:1000000000308A00BF2A00000A108A100A118207F5
:1000100049346E346934633469346F3400343930B0
:10002000840083130008031923280130F800F70126
:10003000F70B1828F80B17284A30F700F70B1E2883
:100040002128800B15280034B801B8013808073C76
:10005000031C5B28B808031D3E2883160610831274
:100060000610831605138312051383168513831256
:10007000851383160512831205124E288316061067
:10008000831206148316051383120517831685132E
:10009000831285178316051283120516831606121E
:1000A0008312061283160612831206160130B90057
:1000B0000F20B80A2628122B3A080739F7003A0C05
:1000C000F800F80CF80C1F30F80578083B0784009E
:1000D00083133C1883170008F800F70A7028F80CFF
:1000E000F70B6F280034BC08031D8328BB08031DD1
:1000F0007E288316061083120610822883160610A7
:1001000083120614AF283C0B9228BB08031D8D28D0
:100110008316051383120513912883160513831282
:100120000517AF283C08023C031DA328BB08031D8C
:100130009E288316851383128513A22883168513A0
:1001400083128517AF28BB08031DAB288316051241
:1001500083120512AF288316051283120516003488
:100160000730AE00AE1BE629831606128312061274
:100170000A30B9000F20AF012F08033C031CDD2912
:100180002E08073C031DF728B408031DCF2883164B
:100190000610831206108316051383120513340B01
:1001A000D52883160610831206143408023C031D5A
:1001B000DD288316051383120517B308031DE828ED
:1001C0008316851383128513831605128312051275
:1001D000330BEE2883168513831285173308023CF0
:1001E000031DF6288316051283120516DB2920301D
:1001F0002F07840083138008031D0E292E08063C58
:10020000BA00BC012430BB005C20003078180130FB
:10021000BA00BB002F08BC007320DB2920302F0759
:1002200084008313000B24292E08063CBA00BC016D
:100230002530BB005C20003078180130BA00BB00CC
:100240002F08BC007320DB2920302F078400831384
:100250000008023C031D3C292E08063CBA00BC01E4
:100260002630BB005C20003078180130BA00BB009B
:100270002F08BC007320DB2920302F078400831354
:100280000008033C031D54292E08063CBA00BC019B
:100290002730BB005C20003078180130BA00BB006A
:1002A0002F08BC007320DB2920302F078400831324
:1002B0000008043C031D6C292E08063CBA00BC0152
:1002C0002830BB005C20003078180130BA00BB0039
:1002D0002F08BC007320DB2920302F0784008313F4
:1002E0000008053C031D84292E08063CBA00BC0109
:1002F0002930BB005C20003078180130BA00BB0008
:100300002F08BC007320DB2920302F0784008313C3
:100310000008063C031D9C292E08063CBA00BC01BF
:100320002A30BB005C20003078180130BA00BB00D6
:100330002F08BC007320DB2920302F078400831393
:100340000008073C031DB4292E08063CBA00BC0176
:100350002B30BB005C20003078180130BA00BB00A5
:100360002F08BC007320DB2920302F078400831363
:100370000008083C031DCC292E08063CBA00BC012D
:100380002C30BB005C20003078180130BA00BB0074
:100390002F08BC007320DB292E08063CBA00BC01E4
:1003A0002D30BB005C20003078180130BA00BB0053
:1003B0002F08BC007320AF0ABC28831606128312D4
:1003C00006160A30B9000F20AE03B22800343A08EE
:1003D000F80139020318EF293908F700FB29F70162
:1003E0000830BB00B90DF70D3A0877020318F70083
:1003F000F80DBB0BF2290034B808031D292A351C5F
:100400001E2A30083602031C0D2A31083602031C4E
:100410000D2A3208360203181D2A0130B6073608A5
:10042000B9000A30BA00E7217808A0003608B90000
:100430000A30BA00E7217708A100282AB5108316F0
:100440008613831286133514831606138312061738
:10045000522AB51C482A30083702031C372A3108B3
:100460003702031C372A320836020318472A0130A4
:10047000B7073708B9000A30BA00E7217808A200A8
:100480003708B9000A30BA00E7217708A300522ADA
:1004900035108316061383120613B51483168613BC
:1004A0008312861733083407013C031C7A2A30086C
:1004B00036020319672A300837020319672A310800
:1004C00036020319672A31083702031D792AB80852
:1004D000031D6F2A0130B407B5143510732A01309B
:1004E000B307B5103514A001A101A201A301B60103
:1004F000B701902A310836020319822A31083702DF
:10050000031D902AB808031D882A0130B4078A2ADF
:100510000130B307A001A101A201A301B601B701F7
:10052000B0200034B808031DAA2AB6080319A92A66
:100530000130B6023608B9000A30BA00E72178085F
:10054000A0003608B9000A30BA00E7217708A100F8
:10055000B020BE2AB7080319BE2A0130B7023708F7
:10056000B9000A30BA00E7217808A2003708B900BC
:100570000A30BA00E7217708A300B02000348401D4
:1005800083131F30830583168E1519309900A6300A
:10059000980090308312980007309F00A001A101BD
:1005A000A201A3010130A4004F30A5001230A60023
:1005B0000630A7004C30A8002430A9006030AA0003
:1005C0000F30AB00AC010430AD00AE01AF010C3018
:1005D000B000B1000F30B200B301B4013510B51056
:1005E000B601B701831685013F308312850083165B
:1005F0008601FF3083128600B80138080420B80A4B
:10060000F70077080C1E022B990006303802031DF4
:10061000FD2A83160613831206138316861383128C
:1006200086132428B0200630B800FA30B9000F2015
:10063000B80B152B8316851483128518472B0230AF
:10064000B800FA30B9000F20B80B212B831685149F
:100650008312851C362B73300C1E2C2B99006C30AA
:100660000C1E302B9900B801FC21472B72300C1E58
:10067000372B99006C300C1E3B2B9900B80192224D
:100680000230B800FA30B9000F20B80B422B8316A5
:10069000051583120519662B0230B800FA30B9002F
:1006A0000F20B80B4E2B831605158312051D5C2BEE
:1006B0000130B800FC21662B0130B80092220230D4
:1006C000B800FA30B9000F20B80B612B1A2B630069
:02400E00503F21
:00000001FF
;PIC16F628A
