:1000000000308A00302900002F308400831300085C
:10001000031918280130F800F701F70B0D28F80B29
:100020000C284A30F700F70B13281628800B0A28F3
:100030000034AE01AE012E08083C031C3528061220
:100040009630AF000420AE08031D2B280610861042
:10005000061186112F280614861406158615061615
:100060009630AF000420AE0A1B2855293008073906
:10007000F700300CF800F80CF80C1F30F805780881
:10008000310784008313321883170008F800F70A39
:100090004A28F80CF70B49280034AE010830AE00AE
:1000A000AE1B2F2906129630AF0004202E08083C04
:1000B000031D5F2806108610061186112929A00845
:1000C000031D73282E08073CB000B2012430B10094
:1000D00036200030781801300139031D71280610D0
:1000E000722806142929200B86282E08073CB00008
:1000F000B2012530B10036200030781801300139C6
:10010000031D842806108528061429292008023C8E
:10011000031D9B282E08073CB000B2012630B10019
:1001200036200030781801300139031D9928061057
:100130009A28061429292008033C031DB0282E08FC
:10014000073CB000B2012730B100362000307818EB
:1001500001300139031DAE280610AF2806142929E5
:100160002008043C031DC5282E08073CB000B2013E
:100170002830B10036200030781801300139031DD5
:10018000C3280610C428061429292008053C031D8D
:10019000DA282E08073CB000B2012930B100362021
:1001A0000030781801300139031DD8280610D928ED
:1001B000061429292008063C031DEF282E08073CB9
:1001C000B000B2012A30B10036200030781801307A
:1001D0000139031DED280610EE28061429292008F0
:1001E000073C031D04292E08073CB000B2012B3048
:1001F000B10036200030781801300139031D022982
:1002000006100329061429292008083C031D192972
:100210002E08073CB000B2012C30B100362000306F
:10022000781801300139031D172906101829061402
:1002300029292E08073CB000B2012D30B10036202C
:100240000030781801300139031D282906102929AA
:10025000061406169630AF000420AE0350285D2920
:10026000840183131F30830507309F000230A000F4
:10027000A101A201A301A4004F30A5001230A600E5
:100280000230A7004C30A8002430A9006030AA003A
:100290000F30AB00AC010430AD003F3065000030E2
:1002A0006600FF308500860019280230AE00FA3063
:0C02B000AF000420AE0B57294D2863005E
:02400E00613F10
:00000001FF
;PIC16F628A
