:1000000000308A0077290000313084008313000813
:10001000031918280130F800F701F70B0D28F80B29
:100020000C284A30F700F70B13281628800B0A28F3
:100030000034B001B0013008073C031C352806121B
:100040009630B1000420B008031D2B28061086103E
:10005000061186112F280614861406158615061615
:100060009630B1000420B00A1B28A42931080739B2
:10007000F700310CF800F80CF80C1F30F805780880
:10008000320784008313331883170008F800F70A37
:100090004A28F80CF70B49280034B308031D5728E9
:1000A000B208031D55280610562806147128330B74
:1000B0006028B208031D5E2886105F288614712808
:1000C0003308023C031D6B28B208031D6928061182
:1000D0006A2806157128B208031D70288611712838
:1000E0008615003405100730AE00AE1B76290612C7
:1000F0009630B1000420AF012F08033C031C6F2988
:100100002E08073C031D892806108610061186114B
:100110006D2920302F07840083138008031DA02839
:100120002E08063CB100B3012430B2003620003066
:1001300078180130B100B2002F08B3004D206D29AE
:1001400020302F0784008313000BB6282E08063CAE
:10015000B100B3012530B2003620003078180130EC
:10016000B100B2002F08B3004D206D2920302F07B9
:10017000840083130008023C031DCE282E08063C91
:10018000B100B3012630B2003620003078180130BB
:10019000B100B2002F08B3004D206D2920302F0789
:1001A000840083130008033C031DE6282E08063C48
:1001B000B100B3012730B20036200030781801308A
:1001C000B100B2002F08B3004D206D2920302F0759
:1001D000840083130008043C031DFE282E08063CFF
:1001E000B100B3012830B200362000307818013059
:1001F000B100B2002F08B3004D206D2920302F0729
:10020000840083130008053C031D16292E08063CB4
:10021000B100B3012930B200362000307818013027
:10022000B100B2002F08B3004D206D2920302F07F8
:10023000840083130008063C031D2E292E08063C6B
:10024000B100B3012A30B2003620003078180130F6
:10025000B100B2002F08B3004D206D2920302F07C8
:10026000840083130008073C031D46292E08063C22
:10027000B100B3012B30B2003620003078180130C5
:10028000B100B2002F08B3004D206D2920302F0798
:10029000840083130008083C031D5E292E08063CD9
:1002A000B100B3012C30B200362000307818013094
:1002B000B100B2002F08B3004D206D292E08063C76
:1002C000B100B3012D30B200362000307818013073
:1002D000B100B2002F08B3004D20AF0A7C280616EB
:1002E0009630B10004200514AE037528AD298401B1
:1002F00083131F30830507309F000930A0000630AC
:10030000A1000730A2000830A3000130A4004F3044
:10031000A5001230A6000630A7004C30A8002430FB
:10032000A9006030AA000F30AB00AC010430AD0072
:10033000AE01AF013E306500003066003F30850001
:10034000FF3086000510192805140630B000FA3079
:10035000B1000420B00BA72972281430B000FA3085
:0A036000B1000420B00BAF296300C8
:02400E00613F10
:00000001FF
;PIC16F628A
